:100000000C942A000C943F000C943F000C943F0089
:100010000C943F000C943F000C943F000C943F0064
:100020000C943F000C943F000C943F000C943F0054
:100030000C943F000C943F000C943F000C943F0044
:100040000C943F000C943F000C943F000C943F0034
:100050000C943F0011241FBECFE5D8E0DEBFCDBF1A
:1000600010E0A0E6B0E0E8E4F9E002C005900D92EF
:10007000A836B107D9F70E94FC020C94A2040C9494
:100080000000CF93DF9300D0CDB7DEB789836A83BA
:100090008981883098F58A81882F90E00097C1F097
:1000A000019709F0ECC08BE390E02BE330E0F9011D
:1000B0002081622F2981422F50E021E030E002C0F0
:1000C000220F331F4A95E2F7262BFC012083D7C06D
:1000D0008BE390E02BE330E0F9012081622F29814E
:1000E000422F50E021E030E002C0220F331F4A953A
:1000F000E2F720952623FC012083C1C08981883046
:1001000008F43DC089818031D0F58A81882F90E044
:100110000097D9F0019709F031C088E390E028E317
:1001200030E0F9012081622F2981222F30E0A901DE
:100130004850510921E030E002C0220F331F4A9598
:10014000E2F7262BFC01208319C088E390E028E326
:1001500030E0F9012081622F2981222F30E0A901AE
:100160004850510921E030E002C0220F331F4A9568
:10017000E2F720952623FC012083000080C08981BE
:10018000803108F43DC089818831D0F58A81882F7B
:1001900090E00097D9F0019709F031C085E390E035
:1001A00025E330E0F9012081622F2981222F30E000
:1001B000A9014051510921E030E002C0220F331F54
:1001C0004A95E2F7262BFC01208319C085E390E0D5
:1001D00025E330E0F9012081622F2981222F30E0D0
:1001E000A9014051510921E030E002C0220F331F24
:1001F0004A95E2F720952623FC01208300003FC0AA
:1002000089818831E0F189818032C8F58A81882F1F
:1002100090E00097D9F0019709F031C082E390E0B7
:1002200022E330E0F9012081622F2981222F30E082
:10023000A9014851510921E030E002C0220F331FCB
:100240004A95E2F7262BFC01208319C082E390E057
:1002500022E330E0F9012081622F2981222F30E052
:10026000A9014851510921E030E002C0220F331F9B
:100270004A95E2F720952623FC0120830000000028
:100280000F900F90DF91CF910895CF93DF9300D01F
:10029000CDB7DEB789836A838981883098F58A81F2
:1002A000882F90E00097C1F0019709F0ECC08AE335
:1002B00090E02AE330E0F9012081622F2981422F6A
:1002C00050E021E030E002C0220F331F4A95E2F7F0
:1002D000262BFC012083D7C08AE390E02AE330E09C
:1002E000F9012081622F2981422F50E021E030E086
:1002F00002C0220F331F4A95E2F720952623FC0106
:100300002083C1C08981883008F43DC08981803153
:10031000D0F58A81882F90E00097D9F0019709F0F5
:1003200031C087E390E027E330E0F9012081622FBC
:100330002981222F30E0A9014850510921E030E005
:1003400002C0220F331F4A95E2F7262BFC012083BF
:1003500019C087E390E027E330E0F9012081622FA4
:100360002981222F30E0A9014850510921E030E0D5
:1003700002C0220F331F4A95E2F720952623FC0185
:100380002083000080C08981803108F43DC08981CC
:100390008831D0F58A81882F90E00097D9F00197B5
:1003A00009F031C084E390E024E330E0F9012081DA
:1003B000622F2981222F30E0A9014051510921E00B
:1003C00030E002C0220F331F4A95E2F7262BFC01D2
:1003D000208319C084E390E024E330E0F901208118
:1003E000622F2981222F30E0A9014051510921E0DB
:1003F00030E002C0220F331F4A95E2F720952623F2
:10040000FC01208300003FC089818831E0F18981AF
:100410008032C8F58A81882F90E00097D9F0019743
:1004200009F031C081E390E021E330E0F90120815F
:10043000622F2981222F30E0A9014851510921E082
:1004400030E002C0220F331F4A95E2F7262BFC0151
:10045000208319C081E390E021E330E0F90120819D
:10046000622F2981222F30E0A9014851510921E052
:1004700030E002C0220F331F4A95E2F72095262371
:10048000FC012083000000000F900F90DF91CF91BE
:100490000895CF93DF931F92CDB7DEB7898389810B
:1004A0008830A8F48BE390E02BE330E0F901208161
:1004B000622F2981422F50E021E030E002C0220F5C
:1004C000331F4A95E2F72627FC0120835AC0898111
:1004D0008830D8F089818031C0F488E390E028E347
:1004E00030E0F9012081622F2981222F30E0A9011B
:1004F0004850510921E030E002C0220F331F4A95D5
:10050000E2F72627FC0120833CC089818031D8F0A6
:1005100089818831C0F485E390E025E330E0F9017A
:100520002081622F2981222F30E0A90140515109F9
:1005300021E030E002C0220F331F4A95E2F7262760
:10054000FC0120831EC089818831D8F089818032E6
:10055000C0F480E390E020E330E0F9012081622FD5
:100560002981222F30E0A9014851510921E030E0D2
:1005700002C0220F331F4A95E2F72627FC01208391
:1005800000C000000F90DF91CF910895CF93DF93CB
:100590001F92CDB7DEB7898361E089810E94450152
:1005A00000000F90DF91CF910895CF93DF9300D09B
:1005B000CDB7DEB789836A838A81882F90E0813046
:1005C000910559F08230910569F0892B09F00EC030
:1005D00060E089810E94410009C061E089810E9438
:1005E000410004C089810E94490200C000000F90B0
:1005F0000F90DF91CF910895CF93DF931F92CDB7E6
:10060000DEB78DE00E94C6028EE00E94C6020E9404
:100610002A0319820E946E0489838981882F90E0C1
:100620008134910521F08234910551F012C062E0CD
:100630008DE00E94D50260E08EE00E94D50209C0E4
:1006400062E08EE00E94D50260E08DE00E94D5025B
:100650000000E0CFCF93DF93CDB7DEB72A970FB678
:10066000F894DEBF0FBECDBF88E0E0E6F0E0DE012B
:10067000139601900D928A95E1F78F81882F90E073
:100680008130910569F0029709F00BC080E490E099
:1006900020E430E0F90120812860FC01208301C0C2
:1006A00000008885882F90E08130910519F002972D
:1006B00059F01DC080E490E020E430E0F901208191
:1006C0002062FC01208313C080E490E020E430E04D
:1006D000F90120812061FC01208380E490E020E486
:1006E00030E0F90120812062FC012083000089852F
:1006F000882F90E08730910509F444C08830910537
:1007000034F48530910559F0069711F17BC088309B
:10071000910509F451C0099709F458C073C080E4E9
:1007200090E020E430E0F9012081FC01208380E4A6
:1007300090E020E430E0F9012081FC01208380E496
:1007400090E020E430E0F9012081FC0120835AC0D0
:1007500080E490E020E430E0F90120812260FC0197
:10076000208380E490E020E430E0F9012081FC0166
:10077000208380E490E020E430E0F9012081FC0156
:10078000208340C080E490E020E430E0F901208143
:10079000FC01208380E490E020E430E0F901208136
:1007A0002460FC01208380E490E020E430E0F90143
:1007B0002081FC01208326C080E490E020E430E02A
:1007C000F90120812668FC0120831CC080E490E0B0
:1007D00020E430E0F90120812260FC01208380E4E4
:1007E00090E020E430E0F90120812460FC012083C6
:1007F0008AE290E02AE230E0F90120812460FC01E5
:10080000208300008A85882F90E08130910519F0BF
:10081000029749F159C02B813C814D815E8180E472
:1008200092E4AFE0B0E0BC01CD010E948004DA01A7
:10083000C90101979A83898380E490E029813A81F4
:10084000232F3327FC01208389E290E02981FC01DA
:1008500020838AE290E02AE230E0F90120812861D9
:10086000FC01208331C08BE290E02BE230E0F90103
:1008700020812260FC0120832B813C814D815E819F
:1008800080E894E8AEE1B0E0BC01CD010E948004B4
:10089000DA01C90101979A83898380E490E0298174
:1008A0003A81232F3327FC01208389E290E02981BC
:1008B000FC0120838AE290E02AE230E0F901208105
:1008C0002861FC012083000000002A960FB6F894EE
:1008D000DEBF0FBECDBFDF91CF910895CF93DF93E1
:1008E000CDB7DEB700008BE290E0FC018081882369
:1008F000D4F78CE290E0FC018081DF91CF910895E4
:10090000A1E21A2EAA1BBB1BFD010DC0AA1FBB1F13
:10091000EE1FFF1FA217B307E407F50720F0A21B85
:10092000B30BE40BF50B661F771F881F991F1A94F2
:1009300069F760957095809590959B01AC01BD011C
:08094000CF010895F894FFCFE8
:080948008025000001000801F8
:00000001FF
