S00A00004F532E7372656378
S11300000C942A000C943C000C943C000C943C008E
S11300100C943C000C943C000C943C000C94B106F1
S11300200C943C000C943C000C943C000C943C005C
S11300300C943C000C943C000C943C000C943C004C
S11300400C943C000C943C000C943C000C943C003C
S11300500C943C0011241FBECFE5D8E0DEBFCDBF19
S113006020E0A0E6B0E001C01D92A23AB207E1F799
S11300700E94B1020C94E2060C940000CF93DF932B
S113008000D0CDB7DEB789836A838981883070F563
S11300908A818823A9F08BE390E02BE330E0F90117
S11300A02081622F2981422F50E021E030E002C0FC
S11300B0220F331F4A95E2F7262BFC012083C4C08C
S11300C08BE390E02BE330E0F9012081622F29815A
S11300D0422F50E021E030E002C0220F331F4A9546
S11300E0E2F720952623FC012083AEC08981883065
S11300F0B8F189818031A0F58A818823C1F088E331
S113010090E028E330E0F9012081622F2981222F39
S113011030E0A9014850510921E030E002C0220F2B
S1130120331F4A95E2F7262BFC0120838DC088E318
S113013090E028E330E0F9012081622F2981222F09
S113014030E0A9014850510921E030E002C0220FFB
S1130150331F4A95E2F720952623FC01208374C0BF
S113016089818031B8F189818831A0F58A81882319
S1130170C1F085E390E025E330E0F9012081622FAE
S11301802981222F30E0A9014051510921E030E0BA
S113019002C0220F331F4A95E2F7262BFC0120836D
S11301A053C085E390E025E330E0F9012081622F1C
S11301B02981222F30E0A9014051510921E030E08A
S11301C002C0220F331F4A95E2F720952623FC0133
S11301D020833AC089818831B8F189818032A0F5C1
S11301E08A818823C1F082E390E022E330E0F901C0
S11301F02081622F2981222F30E0A9014851510921
S113020021E030E002C0220F331F4A95E2F7262B8B
S1130210FC01208319C082E390E022E330E0F9017D
S11302202081622F2981222F30E0A90148515109F0
S113023021E030E002C0220F331F4A95E2F72095F7
S11302402623FC01208300C000000F900F90DF9153
S1130250CF910895CF93DF931F92CDB7DEB78983F3
S113026089818830D8F489E390E0FC018081282FCB
S113027030E08981482F50E081E090E002C0880F8F
S1130280991F4A95E2F7822393232981222F30E094
S113029002C0959587952A95E2F773C089818830C5
S11302A018F18981803100F586E390E0FC018081BA
S11302B0282F30E08981882F90E0AC014850510903
S11302C081E090E002C0880F991F4A95E2F78223EB
S11302D093232981222F30E02850310902C09595BB
S11302E087952A95E2F74DC08981803118F189817B
S11302F0883100F583E390E0FC018081282F30E011
S11303008981882F90E0AC014051510981E090E04F
S113031002C0880F991F4A95E2F78223932329810B
S1130320222F30E02051310902C0959587952A95F6
S1130330E2F727C08981883118F18981803200F57C
S113034080E390E0FC018081282F30E08981882FB0
S113035090E0AC014851510981E090E002C0880F5F
S1130360991F4A95E2F7822393232981222F30E0B3
S11303702851310902C0959587952A95E2F701C065
S113038080E00F90DF91CF910895CF93DF9300D059
S1130390CDB7DEB789836A838981883070F58A8115
S11303A08823A9F08AE390E02AE330E0F901208170
S11303B0622F2981422F50E021E030E002C0220F59
S11303C0331F4A95E2F7262BFC012083C4C08AE33D
S11303D090E02AE330E0F9012081622F2981422F45
S11303E050E021E030E002C0220F331F4A95E2F7CB
S11303F020952623FC012083AEC089818830B8F182
S113040089818031A0F58A818823C1F087E390E057
S113041027E330E0F9012081622F2981222F30E087
S1130420A9014850510921E030E002C0220F331FD6
S11304304A95E2F7262BFC0120838DC087E390E0E8
S113044027E330E0F9012081622F2981222F30E057
S1130450A9014850510921E030E002C0220F331FA6
S11304604A95E2F720952623FC01208374C08981F4
S11304708031B8F189818831A0F58A818823C1F05F
S113048084E390E024E330E0F9012081622F2981A4
S1130490222F30E0A9014051510921E030E002C08F
S11304A0220F331F4A95E2F7262BFC01208353C009
S11304B084E390E024E330E0F9012081622F298174
S11304C0222F30E0A9014051510921E030E002C05F
S11304D0220F331F4A95E2F720952623FC0120833F
S11304E03AC089818831B8F189818032A0F58A8146
S11304F08823C1F081E390E021E330E0F901208119
S1130500622F2981222F30E0A9014851510921E0AD
S113051030E002C0220F331F4A95E2F7262BFC017C
S1130520208319C081E390E021E330E0F9012081C8
S1130530622F2981222F30E0A9014851510921E07D
S113054030E002C0220F331F4A95E2F7209526239C
S1130550FC01208300C000000F900F90DF91CF9129
S11305600895CF93DF93CDB7DEB7AC970FB6F89469
S1130570DEBF0FBECDBF0E94CB0564E070E080E01B
S113058090E00E94D60383EE95E09A83898388EEF7
S113059093E0A0E0B0E08B839C83AD83BE8388EEC0
S11305A093E0A0E0B0E08F839887A987BA8781E0C1
S11305B08B8789EF95E09D878C8780ED97E0A0E09D
S11305C0B0E08E879F87A88BB98B80ED97E0A0E081
S11305D0B0E08A8B9B8BAC8BBD8B1E8A8FE096E040
S11305E0988F8F8B88EB9BE0A0E0B0E0898F9A8F87
S11305F0AB8FBC8F88EB9BE0A0E0B0E08D8F9E8F2B
S1130600AF8FB8A383E089A385E296E09BA38AA376
S113061080EA9FE0A0E0B0E08CA39DA3AEA3BFA3BB
S113062080EA9FE0A0E0B0E088A799A7AAA7BBA7AB
S113063084E08CA7CE0101960E943703CE010C966C
S11306400E943703CE0147960E943703CE0182965B
S11306500E9437030E94530480E090E0AC960FB6EA
S1130660F894DEBF0FBECDBFDF91CF910895CF9335
S1130670DF9300D01F92CDB7DEB79B838A8381E0DE
S113068089838091610090916200A0916300B09190
S113069064000597A105B10508F080C08091610050
S11306A090916200A0916300B09164002A813B8123
S11306B0F90120813181AC016BE0649FC001659F29
S11306C0900D11248B599F4FFC013183208320917D
S11306D061003091620040916300509164008A810E
S11306E09B81FC0182819381A481B581A9016BE086
S11306F0649F9001659F300D112429593F4FF901E2
S113070080839183A283B38320916100309162003E
S113071040916300509164008A819B81FC01868131
S11307209781A085B185A9016BE0649F9001659FC5
S1130730300D112425593F4FF90180839183A28301
S1130740B3838091610090916200A0916300B091A5
S113075064002A813B81F90142859C015BE0529F40
S1130760C001539F900D112481599F4FFC01408378
S11307708091610090916200A0916300B091640047
S11307800196A11DB11D8093610090936200A09316
S11307906300B093640081E0898301C01982898178
S11307A00F900F900F90DF91CF910895CF93DF9327
S11307B0CDB7DEB728970FB6F894DEBF0FBECDBF16
S11307C06D837E838F8398878D819E81AF81B88569
S11307D080939C0090939D00A0939E00B0939F00F3
S11307E019821A821B821C8219821A821B821C8221
S11307F042C029813A814BE0429FC001439F900D42
S113080011248B599F4FFC011182108229813A8156
S11308104BE0429FC001439F900D112489599F4F83
S1130820FC01108211821282138229813A814BE0E9
S1130830429FC001439F900D112485599F4FFC0195
S1130840108211821282138229813A814BE0429FE5
S1130850C001439F900D112481599F4FFC011082C8
S113086089819A81AB81BC810196A11DB11D8983C7
S11308709A83AB83BC8329813A814B815C818D81CE
S11308809E81AF81B885281739074A075B0708F4AA
S1130890B0CF000028960FB6F894DEBF0FBECDBFD0
S11308A0DF91CF910895CF93DF93CDB7DEB70E9448
S11308B0FB040E943B0680EF94E00E949E06809118
S11308C060008130E1F7109260000E946804F7CF65
S11308D0CF93DF931F92CDB7DEB71982198268C018
S11308E08981282F30E04BE0429FC001439F900D47
S11308F0112485599F4FFC0180819181A281B3818C
S11309000197A109B1096BE0629FA001639F500D9B
S113091011249A0125593F4FF90180839183A283C1
S1130920B3838981282F30E04BE0429FC001439F6D
S1130930900D112485599F4FFC0180819181A281E2
S1130940B381892B8A2B8B2B81F58981282F30E069
S11309504BE0429FC001439F900D11248B599F4F40
S1130960FC0180819181FC0109958981482F50E027
S11309708981282F30E06BE0629FC001639F900D56
S1130980112489599F4FFC0180819181A281B381F7
S11309906BE0649F9001659F300D112425593F4FF2
S11309A0F90180839183A283B38389818F5F8983D3
S11309B08981282F30E040E050E0809161009091DF
S11309C06200A0916300B0916400281739074A07B8
S11309D05B0708F485CF00000F90DF91CF91089555
S11309E0CF93DF93CDB7DEB781E080936000000042
S11309F0DF91CF910895CF93DF93CDB7DEB763979F
S1130A000FB6F894DEBF0FBECDBF19821A821B82C7
S1130A101C821D821E821F82188619821A821B82E2
S1130A201C829DC081E090E0A0E0B0E08D839E83B5
S1130A30AF83B88777C02D813E814BE0429FC001D0
S1130A40439F900D112481599F4FFC0140818D815A
S1130A509E81AF81B8850197A109B1099C015BE032
S1130A60529FC001539F900D112481599F4FFC0147
S1130A708081481708F04BC02D813E814BE0429F96
S1130A80C001439F900D11248B599F4F2BE0FC0113
S1130A90DE01199601900D922A95E1F78D819E81D0
S1130AA0AF81B8850197A109B1094D815E816BE0E1
S1130AB0649F9001659F300D11242B593F4FAC0169
S1130AC06BE0649FC001659F900D11248B599F4F6B
S1130AD04BE0FC01D90101900D924A95E1F78D811B
S1130AE09E81AF81B8850197A109B1099C014BE0B2
S1130AF0429FC001439F900D11248B599F4F2BE0BF
S1130B00FE013996DC0101900D922A95E1F78D8161
S1130B109E81AF81B8850196A11DB11D8D839E83F1
S1130B20AF83B88780919C0090919D00A0919E0016
S1130B30B0919F002D813E814F8158852817390738
S1130B404A075B0708F477CF89819A81AB81BC811E
S1130B500196A11DB11D89839A83AB83BC838091C7
S1130B609C0090919D00A0919E00B0919F002981CE
S1130B703A814B815C81281739074A075B0708F4DF
S1130B8051CF000063960FB6F894DEBF0FBECDBF01
S1130B90DF91CF910895CF93DF93CDB7DEB761E0B6
S1130BA08CE00E94C50161E08DE00E94C50161E016
S1130BB08EE00E94C50161E08FE00E94C501000043
S1130BC0DF91CF910895CF93DF93CDB7DEB78CE05B
S1130BD00E942A01882329F060E08CE00E943E00F4
S1130BE004C061E08CE00E943E000000DF91CF91E0
S1130BF00895CF93DF93CDB7DEB78DE00E942A012D
S1130C00882329F060E08DE00E943E0004C061E08A
S1130C108DE00E943E000000DF91CF910895CF93B4
S1130C20DF93CDB7DEB78EE00E942A01882329F036
S1130C3060E08EE00E943E0004C061E08EE00E940D
S1130C403E000000DF91CF910895CF93DF93CDB79D
S1130C50DEB78FE00E942A01882329F060E08FE04C
S1130C600E943E0004C061E08FE00E943E0000004C
S1130C70DF91CF910895CF93DF93CDB7DEB78FE4A3
S1130C8090E02FE430E0F90120812E7FFC012083E5
S1130C908FE490E02FE430E0F90120812D7FFC0106
S1130CA020838EE490E02EE430E0F9012081286076
S1130CB0FC0120838EE490E02EE430E0F9012081F1
S1130CC02F7EFC0120838BE490E02EE3FC01208343
S1130CD08AE490E020E8FC0120838EE490E02EE496
S1130CE030E0F90120812160FC0120838EE490E052
S1130CF02EE430E0F90120812D7FFC0120838EE475
S1130D0090E02EE430E0F90120812B7FFC01208368
S1130D108FE590E02FE530E0F90120812068FC01A7
S1130D20208389E590E029E530E0F9012081206104
S1130D30FC0120830000DF91CF910895CF93DF93CE
S1130D4000D0CDB7DEB79A83898389819A81909345
S1130D50A1008093A00000000F900F90DF91CF912D
S1130D6008951F920F9200905F000F9211242F9309
S1130D703F934F935F936F937F938F939F93AF931F
S1130D80BF93EF93FF93CF93DF93CDB7DEB78091FB
S1130D90A0009091A100FC0109950000DF91CF9182
S1130DA0FF91EF91BF91AF919F918F917F916F913F
S1130DB05F914F913F912F910F9000925F000F90A0
S10B0DC01F901895F894FFCF71
S9030000FC
