S00A00004F532E7372656378
S11300000C942A000C9447000C9447000C9447006D
S11300100C9447000C9447000C9447000C94A303E1
S11300200C9447000C9447000C9447000C94470030
S11300300C9447000C9447000C9447000C94470020
S11300400C9447000C9447000C9447000C94470010
S11300500C94470011241FBECFE5D8E0DEBFCDBF0E
S113006010E0A0E6B0E0ECEAF7E002C005900D92E3
S1130070A836B107D9F720E0A8E6B0E001C01D9288
S1130080A337B207E1F70E9421020C94D4030C9425
S11300900000CF93DF9300D0CDB7DEB789836A83A6
S11300A08981883070F58A818823A9F08BE390E0F8
S11300B02BE330E0F9012081622F2981422F50E0A7
S11300C021E030E002C0220F331F4A95E2F7262BCD
S11300D0FC012083C4C08BE390E02BE330E0F90102
S11300E02081622F2981422F50E021E030E002C0BC
S11300F0220F331F4A95E2F720952623FC01208323
S1130100AEC089818830B8F189818031A0F58A81B7
S11301108823C1F088E390E028E330E0F9012081EE
S1130120622F2981222F30E0A9014850510921E092
S113013030E002C0220F331F4A95E2F7262BFC0160
S113014020838DC088E390E028E330E0F90120812A
S1130150622F2981222F30E0A9014850510921E062
S113016030E002C0220F331F4A95E2F72095262380
S1130170FC01208374C089818031B8F18981883180
S1130180A0F58A818823C1F085E390E025E330E07F
S1130190F9012081622F2981222F30E0A9014051E9
S11301A0510921E030E002C0220F331F4A95E2F7E3
S11301B0262BFC01208353C085E390E025E330E047
S11301C0F9012081622F2981222F30E0A9014051B9
S11301D0510921E030E002C0220F331F4A95E2F7B3
S11301E020952623FC0120833AC089818831B8F107
S11301F089818032A0F58A818823C1F082E390E06E
S113020022E330E0F9012081622F2981222F30E09E
S1130210A9014851510921E030E002C0220F331FE7
S11302204A95E2F7262BFC01208319C082E390E073
S113023022E330E0F9012081622F2981222F30E06E
S1130240A9014851510921E030E002C0220F331FB7
S11302504A95E2F720952623FC01208300C0000084
S11302600F900F90DF91CF910895CF93DF9300D03B
S1130270CDB7DEB789836A838981883070F58A8136
S11302808823A9F08AE390E02AE330E0F901208191
S1130290622F2981422F50E021E030E002C0220F7A
S11302A0331F4A95E2F7262BFC012083C4C08AE35E
S11302B090E02AE330E0F9012081622F2981422F66
S11302C050E021E030E002C0220F331F4A95E2F7EC
S11302D020952623FC012083AEC089818830B8F1A3
S11302E089818031A0F58A818823C1F087E390E079
S11302F027E330E0F9012081622F2981222F30E0A9
S1130300A9014850510921E030E002C0220F331FF7
S11303104A95E2F7262BFC0120838DC087E390E009
S113032027E330E0F9012081622F2981222F30E078
S1130330A9014850510921E030E002C0220F331FC7
S11303404A95E2F720952623FC01208374C0898115
S11303508031B8F189818831A0F58A818823C1F080
S113036084E390E024E330E0F9012081622F2981C5
S1130370222F30E0A9014051510921E030E002C0B0
S1130380220F331F4A95E2F7262BFC01208353C02A
S113039084E390E024E330E0F9012081622F298195
S11303A0222F30E0A9014051510921E030E002C080
S11303B0220F331F4A95E2F720952623FC01208360
S11303C03AC089818831B8F189818032A0F58A8167
S11303D08823C1F081E390E021E330E0F90120813A
S11303E0622F2981222F30E0A9014851510921E0CF
S11303F030E002C0220F331F4A95E2F7262BFC019E
S1130400208319C081E390E021E330E0F9012081E9
S1130410622F2981222F30E0A9014851510921E09E
S113042030E002C0220F331F4A95E2F720952623BD
S1130430FC01208300C000000F900F90DF91CF914A
S11304400895CF93DF93CDB7DEB761E08CE00E94CF
S1130450350161E08DE00E94350161E08EE00E948B
S1130460350161E08FE00E9435010E943C0280E08A
S113047090E0DF91CF910895CF93DF93CDB7DEB7AE
S11304800E942D038EE692E00E9490038091680002
S11304908130E1F7109268000E944F02F7CFCF93AA
S11304A0DF931F92CDB7DEB7198219820FC08981FD
S11304B0882F90E0880F991F805A9F4FFC018081FC
S11304C09181FC01099589818F5F898389818430B9
S11304D070F300000F90DF91CF910895CF93DF93D5
S11304E0CDB7DEB781E0809368000000DF91CF9143
S11304F00895CF93DF93CDB7DEB7809169009091D3
S11305006A00883B9B40A9F460E08DE00E944900AA
S113051060E08EE00E94490060E08FE00E944900A4
S113052061E08CE00E94490010926A001092690018
S113053009C08091690090916A00019690936A00C5
S1130540809369000000DF91CF910895CF93DF93EA
S1130550CDB7DEB780916B0090916C008C3A9D40D2
S1130560A9F460E08CE00E94490060E08EE00E9403
S1130570490060E08FE00E94490061E08DE00E9444
S1130580490010926C0010926B0009C080916B00BE
S113059090916C00019690936C0080936B00000026
S11305A0DF91CF910895CF93DF93CDB7DEB78091DC
S11305B06D0090916E00803A9F40A9F460E08CE059
S11305C00E94490060E08DE00E94490060E08FE0F5
S11305D00E94490061E08EE00E94490010926E0082
S11305E010926D0009C080916D0090916E0001968B
S11305F090936E0080936D000000DF91CF91089579
S1130600CF93DF93CDB7DEB780916F0090917000E8
S113061088389341A9F461E08FE00E94490060E0CA
S11306208CE00E94490060E08DE00E94490060E097
S11306308EE00E9449001092700010926F0009C071
S113064080916F0090917000019690937000809358
S11306506F000000DF91CF910895CF93DF93CDB762
S1130660DEB78FE490E02FE430E0F90120812E7FA3
S1130670FC0120838FE490E02FE430E0F901208135
S11306802D7FFC0120838EE490E02EE430E0F9011C
S113069020812860FC0120838EE490E02EE430E089
S11306A0F90120812F7EFC0120838BE490E02EE36E
S11306B0FC0120838AE490E020E8FC0120838EE49E
S11306C090E02EE430E0F90120812160FC012083D8
S11306D08EE490E02EE430E0F90120812D7FFC01CE
S11306E020838EE490E02EE430E0F90120812B7F1A
S11306F0FC0120838FE590E02FE530E0F9012081B3
S11307002068FC01208389E590E029E530E0F901C7
S113071020812061FC0120830000DF91CF910895A6
S1130720CF93DF9300D0CDB7DEB79A8389838981D5
S11307309A81909372008093710000000F900F9043
S1130740DF91CF9108951F920F9200905F000F9256
S113075011242F933F934F935F936F937F938F93C2
S11307609F93AF93BF93EF93FF93CF93DF93CDB753
S1130770DEB78091710090917200FC010995000030
S1130780DF91CF91FF91EF91BF91AF919F918F91A5
S11307907F916F915F914F913F912F910F900092B4
S10F07A05F000F901F901895F894FFCF95
S10B07AC7902A602D302000346
S9030000FC
