S0170000554152545F5472616E736D697465722E7372656349
S11300000C942A000C9434000C9434000C943400A6
S11300100C9434000C9434000C9434000C9434008C
S11300200C9434000C9434000C9434000C9434007C
S11300300C9434000C9434000C9434000C9434006C
S11300400C9434000C9434000C9434000C9434005C
S11300500C94340011241FBECFE5D8E0DEBFCDBF21
S11300600E9407010C9448010C940000982F8FEF14
S1130070890F873068F439B3292F277081E090E025
S113008002C0880F991F2A95E2F7832389BB08953C
S113009087EF890F873068F436B3292F277081E002
S11300A090E002C0880F991F2A95E2F7832386BB4C
S11300B008958FEE890F873070F443B3977021E071
S11300C030E0B90102C0660F771F9A95E2F7CB01C1
S11300D0842383BB089587EE890F873070F440B37F
S11300E0977021E030E0B90102C0660F771F9A953E
S11300F0E2F7CB01842380BB089580E008959FEF4D
S1130100980F9730F0F4877061110EC04AB321E064
S113011030E0B90102C0660F771F8A95E2F7CB0180
S1130120809584238ABB08954AB321E030E0B90165
S113013002C0660F771F8A95E2F7CB01842B8ABB36
S1130140089597EF980F9730F0F4877061110EC0FF
S113015047B321E030E0B90102C0660F771F8A95EA
S1130160E2F7CB018095842387BB089547B321E050
S113017030E0B90102C0660F771F8A95E2F7CB0120
S1130180842B87BB08959FEE980F9730F0F4877007
S113019061110EC044B321E030E0B90102C0660F22
S11301A0771F8A95E2F7CB018095842384BB089559
S11301B044B321E030E0B90102C0660F771F8A958D
S11301C0E2F7CB01842B84BB089597EE980F973008
S11301D0E8F4877061110EC041B321E030E0B90149
S11301E002C0660F771F8A95E2F7CB0180958423BE
S11301F081BB089541B321E030E0B90102C0660F2C
S1130200771F8A95E2F7CB01842B81BB08950E9466
S11302103B0160E08AE00E947F0060E084E10E948C
S11302207F008AE00E94360084E10E943600882321
S113023069F081E40E9442012FEF84E39CE02150A5
S113024080409040E1F700C00000EBCF84E10E94C1
S113025036008AE00E943600882319F382E40E9463
S113026042012FEF84E39CE0215080409040E1F76D
S113027000C00000D6CF10BC87E689B98AB1886176
S11302808AB908959BB19072F1F39BB98CB9089522
S1070290F894FFCF0C
S9030000FC
