S014000054696D6572315F4D6F746F722E737265636E
S11300000C942A000C9434000C9434000C943400A6
S11300100C9434000C9434000C9434000C9434008C
S11300200C9434000C9434000C9434000C9434007C
S11300300C9434000C9434000C9434000C9434006C
S11300400C9434000C9434000C9434000C9434005C
S11300500C94340011241FBECFE5D8E0DEBFCDBF21
S11300600E9440010C94B3010C9400008830E8F421
S1130070662369F021E030E0A90102C0440F551F56
S11300808A95E2F7CA019BB3892B8BBB089521E0C3
S113009030E0A90102C0440F551F8A95E2F7CA0156
S11300A080959BB389238BBB089598EF980F983064
S11300B0F0F4662369F021E030E0A90102C0440FA6
S11300C0551F9A95E2F7CA0198B3892B88BB089506
S11300D0885021E030E0A90102C0440F551F8A95E1
S11300E0E2F7CA01809598B3892388BB089590EFFD
S11300F0980F9830F0F4662369F021E030E0A9010C
S113010002C0440F551F9A95E2F7CA0195B3892B93
S113011085BB0895805121E030E0A90102C0440F5D
S1130120551F8A95E2F7CA01809595B3892385BB4B
S1130130089598EE980F9830E8F4662369F021E06A
S113014030E0A90102C0440F551F9A95E2F7CA0195
S113015092B3892B82BB0895885121E030E0A90134
S113016002C0440F551F8A95E2F7CA01809592B3E5
S1130170892382BB08958830E8F4662369F021E07E
S113018030E0A90102C0440F551F8A95E2F7CA0165
S11301909AB3892B8ABB089521E030E0A90102C0FB
S11301A0440F551F8A95E2F7CA0180959AB38923B3
S11301B08ABB089598EF980F9830F0F4662369F09D
S11301C021E030E0A90102C0440F551F9A95E2F7DF
S11301D0CA0197B3892B87BB0895885021E030E08A
S11301E0A90102C0440F551F8A95E2F7CA01809500
S11301F097B3892387BB089590EF980F9830F0F454
S1130200662369F021E030E0A90102C0440F551FC4
S11302109A95E2F7CA0194B3892B84BB089580515F
S113022021E030E0A90102C0440F551F8A95E2F78E
S1130230CA01809594B3892384BB089598EE980FDE
S11302409830E8F4662369F021E030E0A90102C0A7
S1130250440F551F9A95E2F7CA0191B3892B81BBCC
S11302600895885121E030E0A90102C0440F551FD0
S11302708A95E2F7CA01809591B3892381BB0895D9
S11302800E944C014CE251E060E070E082E30E9485
S11302907D0180E090E0089561E08DE10E94BB0063
S11302A061E08CE10E94BB0061E08AE10E94BB0036
S11302B061E08BE10E94BB0061E08EE10E94BB0023
S11302C061E08FE10E94BB0061E08AE10E94360098
S11302D061E08EE10E94360060E08BE10E9436000E
S11302E060E08FE10E9436009FB59E7F8EB5926FCD
S11302F09FBD807E89618EBD0895CF93C82F80E015
S113030092E1489FF001499FF00D589FF00D112490
S11303109F013695279536952795ABE7B4E10E9462
S1130320A4019695879524E630E02C1B3109829F21
S1130330A001839F500D929F500D112459BD48BDBB
S1130340F7BD16BCCF910895A29FB001B39FC00121
S1130350A39F700D811D1124911DB29F700D811DED
S10D03601124911D0895F894FFCFB5
S9030000FC
