:100000000C942A000C943C000C943C000C940A03C1
:100010000C943C000C943C000C943C000C943C0070
:100020000C943C000C943C000C94AF020C943C00EB
:100030000C943C000C943C000C943C000C943C0050
:100040000C943C000C943C000C943C000C943C0040
:100050000C943C0011241FBECFE5D8E0DEBFCDBF1D
:1000600020E0A0E6B0E001C01D92A536B207E1F79E
:100070000E9416020C9442030C940000CF93DF936D
:1000800000D0CDB7DEB789836A838981883070F567
:100090008A818823A9F08BE390E02BE330E0F9011B
:1000A0002081622F2981422F50E021E030E002C000
:1000B000220F331F4A95E2F7262BFC012083C4C090
:1000C0008BE390E02BE330E0F9012081622F29815E
:1000D000422F50E021E030E002C0220F331F4A954A
:1000E000E2F720952623FC012083AEC08981883069
:1000F000B8F189818031A0F58A818823C1F088E335
:1001000090E028E330E0F9012081622F2981222F3D
:1001100030E0A9014850510921E030E002C0220F2F
:10012000331F4A95E2F7262BFC0120838DC088E31C
:1001300090E028E330E0F9012081622F2981222F0D
:1001400030E0A9014850510921E030E002C0220FFF
:10015000331F4A95E2F720952623FC01208374C0C3
:1001600089818031B8F189818831A0F58A8188231D
:10017000C1F085E390E025E330E0F9012081622FB2
:100180002981222F30E0A9014051510921E030E0BE
:1001900002C0220F331F4A95E2F7262BFC01208371
:1001A00053C085E390E025E330E0F9012081622F20
:1001B0002981222F30E0A9014051510921E030E08E
:1001C00002C0220F331F4A95E2F720952623FC0137
:1001D00020833AC089818831B8F189818032A0F5C5
:1001E0008A818823C1F082E390E022E330E0F901C4
:1001F0002081622F2981222F30E0A9014851510925
:1002000021E030E002C0220F331F4A95E2F7262B8F
:10021000FC01208319C082E390E022E330E0F90181
:100220002081622F2981222F30E0A90148515109F4
:1002300021E030E002C0220F331F4A95E2F72095FB
:100240002623FC01208300C000000F900F90DF9157
:10025000CF910895CF93DF9300D0CDB7DEB78983D8
:100260006A838981883070F58A818823A9F08AE3BE
:1002700090E02AE330E0F9012081622F2981422FAA
:1002800050E021E030E002C0220F331F4A95E2F730
:10029000262BFC012083C4C08AE390E02AE330E0EF
:1002A000F9012081622F2981422F50E021E030E0C6
:1002B00002C0220F331F4A95E2F720952623FC0146
:1002C0002083AEC089818830B8F189818031A0F562
:1002D0008A818823C1F087E390E027E330E0F901C9
:1002E0002081622F2981222F30E0A9014850510935
:1002F00021E030E002C0220F331F4A95E2F7262B9F
:10030000FC0120838DC087E390E027E330E0F90112
:100310002081622F2981222F30E0A9014850510904
:1003200021E030E002C0220F331F4A95E2F720950A
:100330002623FC01208374C089818031B8F1898132
:100340008831A0F58A818823C1F084E390E024E31A
:1003500030E0F9012081622F2981222F30E0A901AC
:100360004051510921E030E002C0220F331F4A956D
:10037000E2F7262BFC01208353C084E390E024E3C2
:1003800030E0F9012081622F2981222F30E0A9017C
:100390004051510921E030E002C0220F331F4A953D
:1003A000E2F720952623FC0120833AC08981883119
:1003B000B8F189818032A0F58A818823C1F081E378
:1003C00090E021E330E0F9012081622F2981222F82
:1003D00030E0A9014851510921E030E002C0220F6C
:1003E000331F4A95E2F7262BFC01208319C081E3D5
:1003F00090E021E330E0F9012081622F2981222F52
:1004000030E0A9014851510921E030E002C0220F3B
:10041000331F4A95E2F720952623FC01208300C074
:1004200000000F900F90DF91CF910895CF93DF934D
:10043000CDB7DEB761E08DE00E942A0161E08EE079
:100440000E942A0161E08FE00E942A0160E08AE0B8
:100450000E942A010E9476020E949E028091600002
:10046000813069F461E08FE00E943E0060E08EE040
:100470000E943E0060E08DE00E943E00EDCF809142
:100480006000823069F460E08FE00E943E0060E02E
:100490008EE00E943E0061E08DE00E943E00DCCFD5
:1004A00080916000833079F460E08FE00E943E002C
:1004B00061E08EE00E943E0060E08DE00E943E0020
:1004C00010926000C9CF80916000843029F661E00D
:1004D0008FE00E943E0060E08EE00E943E0060E0FF
:1004E0008DE00E943E0010926000B6CFCF93DF9364
:1004F000CDB7DEB783E590E02BE0FC01208382E5F9
:1005000090E0FC0110828CE590E029EFFC01208353
:1005100089E590E029E530E0F90120812260FC01C5
:1005200020838BE590E02BE530E0F901208120620B
:10053000FC0120830000DF91CF910895CF93DF93DA
:10054000CDB7DEB78FE590E02FE530E0F9012081EF
:100550002068FC0120830000DF91CF9108951F9255
:100560000F9200905F000F9211242F933F934F93AF
:100570005F936F937F938F939F93AF93BF93EF930B
:10058000FF93CF93DF93CDB7DEB780916100909159
:100590006200A0916300B0916400883E9340A10581
:1005A000B105A0F48091610090916200A091630078
:1005B000B09164000196A11DB11D809361009093DC
:1005C0006200A0936300B09364000DC010926100BC
:1005D000109262001092630010926400809160009B
:1005E0008F5F809360000E949E020000DF91CF9198
:1005F000FF91EF91BF91AF919F918F917F916F91FB
:100600005F914F913F912F910F9000925F000F905B
:100610001F9018951F920F9200905F000F92112467
:100620002F933F934F935F936F937F938F939F93FA
:10063000AF93BF93EF93FF93CF93DF93CDB7DEB725
:1006400084E080936000109261001092620010922A
:100650006300109264000E949E020000DF91CF911F
:10066000FF91EF91BF91AF919F918F917F916F918A
:100670005F914F913F912F910F9000925F000F90EB
:080680001F901895F894FFCFBC
:00000001FF
