S00B00004C43442E7372656346
S11300000C942A000C943F000C943F000C943F0085
S11300100C943F000C943F000C943F000C943F0060
S11300200C943F000C943F000C943F000C943F0050
S11300300C943F000C943F000C943F000C943F0040
S11300400C943F000C943F000C943F000C943F0030
S11300500C943F0011241FBECFE5D8E0DEBFCDBF16
S113006010E0A0E6B0E0E2ECF1E102C005900D92F0
S1130070A836B107D9F70E94B5070C94DF080C9491
S11300800000CF93DF9300D0CDB7DEB789836A83B6
S11300908981883070F58A818823A9F08BE390E008
S11300A02BE330E0F9012081622F2981422F50E0B7
S11300B021E030E002C0220F331F4A95E2F7262BDD
S11300C0FC012083C4C08BE390E02BE330E0F90112
S11300D02081622F2981422F50E021E030E002C0CC
S11300E0220F331F4A95E2F720952623FC01208333
S11300F0AEC089818830B8F189818031A0F58A81C8
S11301008823C1F088E390E028E330E0F9012081FE
S1130110622F2981222F30E0A9014850510921E0A2
S113012030E002C0220F331F4A95E2F7262BFC0170
S113013020838DC088E390E028E330E0F90120813A
S1130140622F2981222F30E0A9014850510921E072
S113015030E002C0220F331F4A95E2F72095262390
S1130160FC01208374C089818031B8F18981883190
S1130170A0F58A818823C1F085E390E025E330E08F
S1130180F9012081622F2981222F30E0A9014051F9
S1130190510921E030E002C0220F331F4A95E2F7F3
S11301A0262BFC01208353C085E390E025E330E057
S11301B0F9012081622F2981222F30E0A9014051C9
S11301C0510921E030E002C0220F331F4A95E2F7C3
S11301D020952623FC0120833AC089818831B8F117
S11301E089818032A0F58A818823C1F082E390E07E
S11301F022E330E0F9012081622F2981222F30E0AF
S1130200A9014851510921E030E002C0220F331FF7
S11302104A95E2F7262BFC01208319C082E390E083
S113022022E330E0F9012081622F2981222F30E07E
S1130230A9014851510921E030E002C0220F331FC7
S11302404A95E2F720952623FC01208300C0000094
S11302500F900F90DF91CF910895CF93DF9300D04B
S1130260CDB7DEB789836A838981883070F58A8146
S11302708823A9F08AE390E02AE330E0F9012081A1
S1130280622F2981422F50E021E030E002C0220F8A
S1130290331F4A95E2F7262BFC012083C4C08AE36E
S11302A090E02AE330E0F9012081622F2981422F76
S11302B050E021E030E002C0220F331F4A95E2F7FC
S11302C020952623FC012083AEC089818830B8F1B3
S11302D089818031A0F58A818823C1F087E390E089
S11302E027E330E0F9012081622F2981222F30E0B9
S11302F0A9014850510921E030E002C0220F331F08
S11303004A95E2F7262BFC0120838DC087E390E019
S113031027E330E0F9012081622F2981222F30E088
S1130320A9014850510921E030E002C0220F331FD7
S11303304A95E2F720952623FC01208374C0898125
S11303408031B8F189818831A0F58A818823C1F090
S113035084E390E024E330E0F9012081622F2981D5
S1130360222F30E0A9014051510921E030E002C0C0
S1130370220F331F4A95E2F7262BFC01208353C03A
S113038084E390E024E330E0F9012081622F2981A5
S1130390222F30E0A9014051510921E030E002C090
S11303A0220F331F4A95E2F720952623FC01208370
S11303B03AC089818831B8F189818032A0F58A8177
S11303C08823C1F081E390E021E330E0F90120814A
S11303D0622F2981222F30E0A9014851510921E0DF
S11303E030E002C0220F331F4A95E2F7262BFC01AE
S11303F0208319C081E390E021E330E0F9012081FA
S1130400622F2981222F30E0A9014851510921E0AE
S113041030E002C0220F331F4A95E2F720952623CD
S1130420FC01208300C000000F900F90DF91CF915A
S11304300895CF93DF93CDB7DEB72E970FB6F89418
S1130440DEBF0FBECDBF61E081E00E942D0161E0FF
S113045082E00E942D0161E083E00E942D0161E0B1
S113046084E00E942D0161E085E00E942D0161E09D
S113047086E00E942D0161E087E00E942D0160E08A
S113048083E00E94410080E090E0A0E7B1E489832A
S11304909A83AB83BC8320E030E04AE755E469816A
S11304A07A818B819C810E944A08DC01CB018D8377
S11304B09E83AF83B88720E030E040E85FE36D813E
S11304C07E818F8198850E94C40788232CF481E063
S11304D090E09A8789873FC020E03FEF4FE757E4D9
S11304E06D817E818F8198850E94450818164CF590
S11304F020E030E040E251E469817A818B819C8183
S11305000E944A08DC01CB01BC01CD010E94C9074D
S1130510DC01CB019A8789870FC080E991E09C8731
S11305208B878B859C850197F1F79C878B878985C1
S11305309A8501979A87898789859A85892B69F78E
S113054014C06D817E818F8198850E94C907DC016A
S1130550CB019A87898789859A859E878D878D8522
S11305609E850197F1F79E878D8783E30E94D102D0
S113057082E30E94D10288E20E94D1028EE00E94AE
S1130580D10281E00E94D10286E00E94D1020000E3
S11305902E960FB6F894DEBF0FBECDBFDF91CF917C
S11305A00895CF93DF93CDB7DEB7E9970FB6F894EC
S11305B0DEBF0FBECDBF89AF60E081E00E94410085
S11305C060E082E00E94410089AD882F90E0807154
S11305D0992795958795959587959595879595955B
S11305E08795682F84E00E94410089AD882F90E0B0
S11305F08072992795958795959587959595879573
S11306009595879595958795682F85E00E9441007B
S113061089AD882F90E080749927082E892F000CCB
S1130620881F990B000C881F991F682F86E00E9471
S1130630410089AD881F8827881F682F87E00E94A2
S1130640410061E083E00E94410080E090E0A0E886
S1130650BFE389839A83AB83BC8320E030E04AE71D
S113066055E469817A818B819C810E944A08DC016E
S1130670CB018FA798ABA9ABBAAB20E030E040E840
S11306805FE36FA578A989A99AA90E94C407882362
S11306902CF481E090E09CAB8BAB3FC020E03FEFBB
S11306A04FE757E46FA578A989A99AA90E9445083C
S11306B018164CF520E030E040E251E469817A817B
S11306C08B819C810E944A08DC01CB01BC01CD01D5
S11306D00E94C907DC01CB019CAB8BAB0FC080E946
S11306E091E09EAB8DAB8DA99EA90197F1F79EABCE
S11306F08DAB8BA99CA901979CAB8BAB8BA99CA9B7
S1130700892B69F714C06FA578A989A99AA90E94B1
S1130710C907DC01CB019CAB8BAB8BA99CA998AF1F
S11307208FAB8FA998AD0197F1F798AF8FAB60E0CD
S113073083E00E94410080E090E0A0E8BFE38D8365
S11307409E83AF83B88720E030E04AE755E46D81AB
S11307507E818F8198850E944A08DC01CB018DA39C
S11307609EA3AFA3B8A720E030E040E85FE36DA10B
S11307707EA18FA198A50E94C40788232CF481E050
S113078090E09AA789A73FC020E03FEF4FE757E4E6
S11307906DA17EA18FA198A50E94450818164CF55D
S11307A020E030E040E251E46D817E818F819885C4
S11307B00E944A08DC01CB01BC01CD010E94C9079B
S11307C0DC01CB019AA789A70FC080E991E09CA71F
S11307D08BA78BA59CA50197F1F79CA78BA789A54F
S11307E09AA501979AA789A789A59AA5892B69F73C
S11307F014C06DA17EA18FA198A50E94C907DC0138
S1130800CB019AA789A789A59AA59EA78DA78DA58F
S11308109EA50197F1F79EA78DA789AD8170682FDA
S113082084E00E94410089AD882F90E0827099276E
S113083095958795682F85E00E94410089AD882FA2
S113084090E0847099279595879595958795682F5D
S113085086E00E94410089AD882F90E08870992736
S1130860959587959595879595958795682F87E0B4
S11308700E94410061E083E00E94410080E090E03A
S1130880A0E8BFE389879A87AB87BC8720E030E084
S11308904AE755E469857A858B859C850E944A08D8
S11308A0DC01CB018B8F9C8FAD8FBE8F20E030E0BD
S11308B040E85FE36B8D7C8D8D8D9E8D0E94C40717
S11308C088232CF481E090E098A38F8F3FC020E030
S11308D03FEF4FE757E46B8D7C8D8D8D9E8D0E948D
S11308E0450818164CF520E030E040E251E46985F3
S11308F07A858B859C850E944A08DC01CB01BC016A
S1130900CD010E94C907DC01CB0198A38F8F0FC0D2
S113091080E991E09AA389A389A19AA10197F1F7AB
S11309209AA389A38F8D98A1019798A38F8F8F8DF8
S113093098A1892B69F714C06B8D7C8D8D8D9E8D4C
S11309400E94C907DC01CB0198A38F8F8F8D98A1DA
S11309509CA38BA38BA19CA10197F1F79CA38BA3D0
S113096060E083E00E94410080E090E0A0E8BFE303
S11309708D879E87AF87B88B20E030E04AE755E447
S11309806D857E858F8598890E944A08DC01CB019C
S1130990898B9A8BAB8BBC8B20E030E040E85FE323
S11309A069897A898B899C890E94C40788232CF4DD
S11309B081E090E09E8B8D8B3FC020E03FEF4FE7BE
S11309C057E469897A898B899C890E94450818169D
S11309D04CF520E030E040E251E46D857E858F8562
S11309E098890E944A08DC01CB01BC01CD010E9418
S11309F0C907DC01CB019E8B8D8B0FC080E991E090
S1130A00988F8F8B8F89988D0197F1F7988F8F8BA3
S1130A108D899E8901979E8B8D8B8D899E89892BCB
S1130A2069F714C069897A898B899C890E94C907EE
S1130A30DC01CB019E8B8D8B8D899E899A8F898F4A
S1130A40898D9A8D0197F1F79A8F898F0000E99625
S1130A500FB6F894DEBF0FBECDBFDF91CF910895DE
S1130A60CF93DF93CDB7DEB7E9970FB6F894DEBF27
S1130A700FBECDBF89AF61E081E00E94410060E01C
S1130A8082E00E9441008BE390E02BE330E0F90127
S1130A902081322F3F7029AD207F232BFC0120833E
S1130AA061E083E00E94410080E090E0A0E8BFE3C1
S1130AB089839A83AB83BC8320E030E04AE755E422
S1130AC069817A818B819C810E944A08DC01CB0177
S1130AD08FA798ABA9ABBAAB20E030E040E85FE366
S1130AE06FA578A989A99AA90E94C40788232CF420
S1130AF081E090E09CAB8BAB3FC020E03FEF4FE741
S1130B0057E46FA578A989A99AA90E9445081816DF
S1130B104CF520E030E040E251E469817A818B8138
S1130B209C810E944A08DC01CB01BC01CD010E94DA
S1130B30C907DC01CB019CAB8BAB0FC080E991E012
S1130B409EAB8DAB8DA99EA90197F1F79EAB8DABA2
S1130B508BA99CA901979CAB8BAB8BA99CA9892BD6
S1130B6069F714C06FA578A989A99AA90E94C90731
S1130B70DC01CB019CAB8BAB8BA99CA998AF8FAB51
S1130B808FA998AD0197F1F798AF8FAB60E083E040
S1130B900E94410080E090E0A0E8BFE38D839E8343
S1130BA0AF83B88720E030E04AE755E46D817E8169
S1130BB08F8198850E944A08DC01CB018DA39EA3F6
S1130BC0AFA3B8A720E030E040E85FE36DA17EA1C9
S1130BD08FA198A50E94C40788232CF481E090E09B
S1130BE09AA789A73FC020E03FEF4FE757E46DA1E4
S1130BF07EA18FA198A50E94450818164CF520E007
S1130C0030E040E251E46D817E818F8198850E94BD
S1130C104A08DC01CB01BC01CD010E94C907DC01FB
S1130C20CB019AA789A70FC080E991E09CA78BA765
S1130C308BA59CA50197F1F79CA78BA789A59AA5DD
S1130C4001979AA789A789A59AA5892B69F714C042
S1130C506DA17EA18FA198A50E94C907DC01CB01DB
S1130C609AA789A789A59AA59EA78DA78DA59EA5B4
S1130C700197F1F79EA78DA78BE390E02BE330E07B
S1130C80F9012081422F4F7029AD222F30E02295A7
S1130C903295307F3227207F3227242BFC0120839A
S1130CA061E083E00E94410080E090E0A0E8BFE3BF
S1130CB089879A87AB87BC8720E030E04AE755E410
S1130CC069857A858B859C850E944A08DC01CB0165
S1130CD08B8F9C8FAD8FBE8F20E030E040E85FE3C8
S1130CE06B8D7C8D8D8D9E8D0E94C40788232CF482
S1130CF081E090E098A38F8F3FC020E03FEF4FE763
S1130D0057E46B8D7C8D8D8D9E8D0E944508181641
S1130D104CF520E030E040E251E469857A858B852A
S1130D209C850E944A08DC01CB01BC01CD010E94D4
S1130D30C907DC01CB0198A38F8F0FC080E991E034
S1130D409AA389A389A19AA10197F1F79AA389A3E8
S1130D508F8D98A1019798A38F8F8F8D98A1892B40
S1130D6069F714C06B8D7C8D8D8D9E8D0E94C90793
S1130D70DC01CB0198A38F8F8F8D98A19CA38BA3AB
S1130D808BA19CA10197F1F79CA38BA360E083E066
S1130D900E94410080E090E0A0E8BFE38D879E8739
S1130DA0AF87B88B20E030E04AE755E46D857E8557
S1130DB08F8598890E944A08DC01CB01898B9A8B24
S1130DC0AB8BBC8B20E030E040E85FE369897A8933
S1130DD08B899C890E94C40788232CF481E090E0CD
S1130DE09E8B8D8B3FC020E03FEF4FE757E469892E
S1130DF07A898B899C890E94450818164CF520E055
S1130E0030E040E251E46D857E858F8598890E94AB
S1130E104A08DC01CB01BC01CD010E94C907DC01F9
S1130E20CB019E8B8D8B0FC080E991E0988F8F8BC7
S1130E308F89988D0197F1F7988F8F8B8D899E8973
S1130E4001979E8B8D8B8D899E89892B69F714C0A0
S1130E5069897A898B899C890E94C907DC01CB0145
S1130E609E8B8D8B8D899E899A8F898F898D9A8D82
S1130E700197F1F79A8F898F0000E9960FB6F894DD
S1130E80DEBF0FBECDBFDF91CF910895CF93DF9327
S1130E9000D01F92CDB7DEB79B838A8319820EC020
S1130EA08981882F90E02A813B81820F931FFC0166
S1130EB080810E94300589818F5F89838981882F91
S1130EC090E02A813B81820F931FFC01808188235B
S1130ED039F700000F900F900F90DF91CF91089594
S1130EE0CF93DF9300D0CDB7DEB789836A8389813E
S1130EF0882F90E08130910519F0029731F00AC0F3
S1130F008A8180580E94D10205C08A8180540E943F
S1130F10D102000000000F900F90DF91CF9108954F
S1130F20CF93DF9300D000D0CDB7DEB789836A8337
S1130F305C834B836A8189810E9470078B819C81C9
S1130F400E94460700000F900F900F900F90DF91C2
S1130F50CF910895CF93DF93CDB7DEB781E00E94A0
S1130F60D1020000DF91CF910895CF93DF93CDB7E5
S1130F70DEB70E9419020E94AA0740E650E062E030
S1130F8082E00E949007F9CF0E94F80708F481E0FC
S1130F9008950E94240888F09F5798F0B92F992744
S1130FA0B751B0F0E1F0660F771F881F991F1AF050
S1130FB0BA95C9F714C0B13091F00E943E08B1E06F
S1130FC008950C943E08672F782F8827B85F39F06E
S1130FD0B93FCCF3869577956795B395D9F73EF4E9
S1130FE090958095709561957F4F8F4F9F4F089591
S1130FF0990F0008550FAA0BE0E8FEEF1616170626
S1131000E807F907C0F012161306E407F50798F08D
S1131010621B730B840B950B39F40A2661F0232BA6
S1131020242B252B21F408950A2609F4A140A69522
S11310308FEF811D811D089557FD9058440F551F52
S113104059F05F3F71F04795880F97FB991F61F046
S11310509F3F79F087950895121613061406551FBD
S1131060F2CF4695F1DF08C0161617061806991F29
S1131070F1CF86957105610508940895E894BB271E
S113108066277727CB0197F908950E94F80708F49B
S11310908FEF08950E945D080C94CE080E94C0084A
S11310A038F00E94C70820F0952311F00C94B7087B
S11310B00C94BD0811240C943F080E941C0870F382
S11310C0959FC1F3950F50E0551F629FF001729FE9
S11310D0BB27F00DB11D639FAA27F00DB11DAA1FF8
S11310E0649F6627B00DA11D661F829F2227B00D45
S11310F0A11D621F739FB00DA11D621F839FA00DD0
S1131100611D221F749F3327A00D611D231F849F1F
S1131110600D211D822F762F6A2F11249F57504076
S11311209AF0F1F088234AF0EE0FFF1FBB1F661FF1
S1131130771F881F91505040A9F79E3F510580F0BA
S11311400C94B7080C943F085F3FE4F3983ED4F343
S1131150869577956795B795F795E7959F5FC1F75E
S1131160FE2B880F911D9695879597F9089597F909
S11311709F6780E870E060E008959FEF80EC089539
S113118000240A9416161706180609060895002462
S11311900A9412161306140605060895092E0394DC
S11311A0000C11F4882352F0BB0F40F4BF2B11F450
S11311B060FF04C06F5F7F4F8F4F9F4F0895F89477
S10511C0FFCF5B
S10B11C26D6935616161610092
S9030000FC
