:100000000C942A000C943C000C943C000C943C0092
:100010000C943C000C943C000C943C000C94EA04BE
:100020000C943C000C943C000C943C000C943C0060
:100030000C943C000C943C000C943C000C943C0050
:100040000C943C000C943C000C943C000C943C0040
:100050000C943C0011241FBECFE5D8E0DEBFCDBF1D
:1000600020E0A0E6B0E001C01D92A939B207E1F797
:100070000E9416020C941B050C940000CF93DF9392
:1000800000D0CDB7DEB789836A838981883070F567
:100090008A818823A9F08BE390E02BE330E0F9011B
:1000A0002081622F2981422F50E021E030E002C000
:1000B000220F331F4A95E2F7262BFC012083C4C090
:1000C0008BE390E02BE330E0F9012081622F29815E
:1000D000422F50E021E030E002C0220F331F4A954A
:1000E000E2F720952623FC012083AEC08981883069
:1000F000B8F189818031A0F58A818823C1F088E335
:1001000090E028E330E0F9012081622F2981222F3D
:1001100030E0A9014850510921E030E002C0220F2F
:10012000331F4A95E2F7262BFC0120838DC088E31C
:1001300090E028E330E0F9012081622F2981222F0D
:1001400030E0A9014850510921E030E002C0220FFF
:10015000331F4A95E2F720952623FC01208374C0C3
:1001600089818031B8F189818831A0F58A8188231D
:10017000C1F085E390E025E330E0F9012081622FB2
:100180002981222F30E0A9014051510921E030E0BE
:1001900002C0220F331F4A95E2F7262BFC01208371
:1001A00053C085E390E025E330E0F9012081622F20
:1001B0002981222F30E0A9014051510921E030E08E
:1001C00002C0220F331F4A95E2F720952623FC0137
:1001D00020833AC089818831B8F189818032A0F5C5
:1001E0008A818823C1F082E390E022E330E0F901C4
:1001F0002081622F2981222F30E0A9014851510925
:1002000021E030E002C0220F331F4A95E2F7262B8F
:10021000FC01208319C082E390E022E330E0F90181
:100220002081622F2981222F30E0A90148515109F4
:1002300021E030E002C0220F331F4A95E2F72095FB
:100240002623FC01208300C000000F900F90DF9157
:10025000CF910895CF93DF9300D0CDB7DEB78983D8
:100260006A838981883070F58A818823A9F08AE3BE
:1002700090E02AE330E0F9012081622F2981422FAA
:1002800050E021E030E002C0220F331F4A95E2F730
:10029000262BFC012083C4C08AE390E02AE330E0EF
:1002A000F9012081622F2981422F50E021E030E0C6
:1002B00002C0220F331F4A95E2F720952623FC0146
:1002C0002083AEC089818830B8F189818031A0F562
:1002D0008A818823C1F087E390E027E330E0F901C9
:1002E0002081622F2981222F30E0A9014850510935
:1002F00021E030E002C0220F331F4A95E2F7262B9F
:10030000FC0120838DC087E390E027E330E0F90112
:100310002081622F2981222F30E0A9014850510904
:1003200021E030E002C0220F331F4A95E2F720950A
:100330002623FC01208374C089818031B8F1898132
:100340008831A0F58A818823C1F084E390E024E31A
:1003500030E0F9012081622F2981222F30E0A901AC
:100360004051510921E030E002C0220F331F4A956D
:10037000E2F7262BFC01208353C084E390E024E3C2
:1003800030E0F9012081622F2981222F30E0A9017C
:100390004051510921E030E002C0220F331F4A953D
:1003A000E2F720952623FC0120833AC08981883119
:1003B000B8F189818032A0F58A818823C1F081E378
:1003C00090E021E330E0F9012081622F2981222F82
:1003D00030E0A9014851510921E030E002C0220F6C
:1003E000331F4A95E2F7262BFC01208319C081E3D5
:1003F00090E021E330E0F9012081622F2981222F52
:1004000030E0A9014851510921E030E002C0220F3B
:10041000331F4A95E2F720952623FC01208300C074
:1004200000000F900F90DF91CF910895CF93DF934D
:10043000CDB7DEB7A0970FB6F894DEBF0FBECDBF25
:1004400061E08CE00E942A0161E08DE00E942A01B7
:1004500061E08EE00E942A0161E08FE00E942A01A3
:1004600088EE93E0A0E0B0E089839A83AB83BC83FD
:1004700080ED97E0A0E0B0E08D839E83AF83B887E6
:1004800088EB9BE0A0E0B0E089879A87AB87BC87C8
:1004900080EA9FE0A0E0B0E08D879E87AF87B88BB1
:1004A00089819A81AB81BC81898B9A8BAB8BBC8B08
:1004B0008D819E81AF81B8858D8B9E8BAF8BB88FE0
:1004C00089859A85AB85BC85898F9A8FAB8FBC8FC8
:1004D0008D859E85AF85B8898D8F9E8FAF8FB8A390
:1004E000CE014196AC0164E070E080E090E00E94B3
:1004F000E20280E294E00E94960288E394E00E9487
:10050000960280E594E00E9496028CE594E00E94B9
:1005100096020E94630380E090E0A0960FB6F894E4
:10052000DEBF0FBECDBFDF91CF910895CF93DF9394
:1005300000D01F92CDB7DEB79B838A8381E0898389
:100540008091610090916200A0916300B09164007D
:100550000597A105B10570F5809161009091620049
:10056000A0916300B0916400880F991F9C01220F35
:10057000331F220F331F820F931F8B599F4F2A81E6
:100580003B81FC0131832083809161009091620066
:10059000A0916300B09164000196A11DB11D8093EC
:1005A000610090936200A0936300B093640081E0C7
:1005B000898301C0198289810F900F900F90DF917C
:1005C000CF910895CF93DF93CDB7DEB72A970FB6BB
:1005D000F894DEBF0FBECDBF6D837E838F83988777
:1005E0005A87498719821A821B821C8219821A82B1
:1005F0001B821C8250C089819A81880F991F880FA5
:10060000991F29853A85820F931FFC012081318132
:100610004281538189819A81880F991FBC01660F9D
:10062000771F660F771F860F971F89599F4FFC0111
:10063000208331834283538389819A81880F991F54
:100640009C01220F331F220F331F820F931F8959E2
:100650009F4FFC01208131814281538189819A81A0
:10066000880F991FBC01660F771F660F771F860FD3
:10067000971F85599F4FFC01208331834283538309
:1006800089819A81AB81BC810196A11DB11D8983AD
:100690009A83AB83BC8329813A814B815C818D81B4
:1006A0009E81AF81B885281739074A075B0708F490
:1006B000A2CF00002A960FB6F894DEBF0FBECDBFC2
:1006C000DF91CF910895CF93DF93CDB7DEB70E942E
:1006D000740485E194E00E94D70480916000813029
:1006E000E1F7109260000E947603F7CFCF93DF937B
:1006F0001F92CDB7DEB7198219827FC08981682F1A
:1007000070E0CB01880F991F9C01220F331F220F2D
:10071000331F820F931F85599F4FFC018081918168
:10072000A281B3819C01AD012150310941095109D8
:10073000CB01880F991FBC01660F771F660F771FCB
:10074000860F971F85599F4FFC0120833183428379
:1007500053838981882F90E0880F991F9C01220F75
:10076000331F220F331F820F931F85599F4FFC01A8
:1007700080819181A281B381892B8A2B8B2BD1F52A
:100780008981882F90E0880F991F9C01220F331FC9
:10079000220F331F820F931F8B599F4FFC018081C3
:1007A0009181FC0109958981682F70E08981882FEA
:1007B00090E0880F991F9C01220F331F220F331FD7
:1007C000820F931F89599F4FFC0120813181428103
:1007D0005381CB01880F991FBC01660F771F660FED
:1007E000771F860F971F85599F4FFC012083318308
:1007F0004283538389818F5F89838981282F30E0E9
:1008000040E050E08091610090916200A09163000F
:10081000B0916400281739074A075B0708F46ECFC8
:1008200000000F90DF91CF910895CF93DF93CDB764
:10083000DEB781E0809360000000DF91CF910895E2
:10084000CF93DF93CDB7DEB760E08DE00E943E002E
:1008500060E08EE00E943E0060E08FE00E943E007B
:1008600061E08CE00E943E000000DF91CF9108958E
:10087000CF93DF93CDB7DEB760E08CE00E943E00FF
:1008800060E08EE00E943E0060E08FE00E943E004B
:1008900061E08DE00E943E000000DF91CF9108955D
:1008A000CF93DF93CDB7DEB761E08EE00E943E00CC
:1008B0000000DF91CF910895CF93DF93CDB7DEB7DE
:1008C00060E08CE00E943E0060E08DE00E943E000F
:1008D00060E08EE00E943E0061E08FE00E943E00FA
:1008E0000000DF91CF910895CF93DF93CDB7DEB7AE
:1008F0008FE490E02FE430E0F90120812E7FFC01AD
:1009000020838FE490E02FE430E0F90120812D7FF7
:10091000FC0120838EE490E02EE430E0F901208198
:100920002860FC0120838EE490E02EE430E0F901A1
:1009300020812F7EFC0120838BE490E02EE3FC01DC
:1009400020838AE490E020E8FC0120838EE490E09C
:100950002EE430E0F90120812160FC0120838EE447
:1009600090E02EE430E0F90120812D7FFC0120830E
:100970008EE490E02EE430E0F90120812B7FFC0131
:1009800020838FE590E02FE530E0F9012081206899
:10099000FC01208389E590E029E530E0F901208120
:1009A0002061FC0120830000DF91CF910895CF9357
:1009B000DF9300D0CDB7DEB79A83898389819A818E
:1009C000909398008093970000000F900F90DF9114
:1009D000CF9108951F920F9200905F000F92112403
:1009E0002F933F934F935F936F937F938F939F9337
:1009F000AF93BF93EF93FF93CF93DF93CDB7DEB762
:100A00008091970090919800FC0109950000DF917A
:100A1000CF91FF91EF91BF91AF919F918F917F9176
:100A20006F915F914F913F912F910F9000925F00D6
:0A0A30000F901F901895F894FFCF67
:00000001FF
