:100000000C942A000C9447000C9447000C94470071
:100010000C9447000C9447000C9447000C94C406C1
:100020000C9447000C9447000C9447000C94470034
:100030000C9447000C9447000C9447000C94470024
:100040000C9447000C9447000C9447000C94470014
:100050000C94470011241FBECFE5D8E0DEBFCDBF12
:1000600010E0A0E6B0E0EEEEFDE002C005900D92DB
:10007000AC38B107D9F720E0ACE8B0E001C01D9280
:10008000AE3CB207E1F70E94BC020C94F5060C945A
:100090000000CF93DF9300D0CDB7DEB789836A83AA
:1000A0008981883070F58A818823A9F08BE390E0FC
:1000B0002BE330E0F9012081622F2981422F50E0AB
:1000C00021E030E002C0220F331F4A95E2F7262BD1
:1000D000FC012083C4C08BE390E02BE330E0F90106
:1000E0002081622F2981422F50E021E030E002C0C0
:1000F000220F331F4A95E2F720952623FC01208327
:10010000AEC089818830B8F189818031A0F58A81BB
:100110008823C1F088E390E028E330E0F9012081F2
:10012000622F2981222F30E0A9014850510921E096
:1001300030E002C0220F331F4A95E2F7262BFC0164
:1001400020838DC088E390E028E330E0F90120812E
:10015000622F2981222F30E0A9014850510921E066
:1001600030E002C0220F331F4A95E2F72095262384
:10017000FC01208374C089818031B8F18981883184
:10018000A0F58A818823C1F085E390E025E330E083
:10019000F9012081622F2981222F30E0A9014051ED
:1001A000510921E030E002C0220F331F4A95E2F7E7
:1001B000262BFC01208353C085E390E025E330E04B
:1001C000F9012081622F2981222F30E0A9014051BD
:1001D000510921E030E002C0220F331F4A95E2F7B7
:1001E00020952623FC0120833AC089818831B8F10B
:1001F00089818032A0F58A818823C1F082E390E072
:1002000022E330E0F9012081622F2981222F30E0A2
:10021000A9014851510921E030E002C0220F331FEB
:100220004A95E2F7262BFC01208319C082E390E077
:1002300022E330E0F9012081622F2981222F30E072
:10024000A9014851510921E030E002C0220F331FBB
:100250004A95E2F720952623FC01208300C0000088
:100260000F900F90DF91CF910895CF93DF931F925E
:10027000CDB7DEB7898389818830D8F489E390E0EF
:10028000FC018081282F30E08981482F50E081E0F7
:1002900090E002C0880F991F4A95E2F782239323CA
:1002A0002981222F30E002C0959587952A95E2F7A3
:1002B00073C08981883018F18981803100F586E327
:1002C00090E0FC018081282F30E08981882F90E028
:1002D000AC014850510981E090E002C0880F991F9D
:1002E0004A95E2F7822393232981222F30E0285078
:1002F000310902C0959587952A95E2F74DC089810D
:10030000803118F18981883100F583E390E0FC01A8
:100310008081282F30E08981882F90E0AC01405106
:10032000510981E090E002C0880F991F4A95E2F7D9
:10033000822393232981222F30E02051310902C0EA
:10034000959587952A95E2F727C08981883118F11C
:100350008981803200F580E390E0FC018081282FC4
:1003600030E08981882F90E0AC014851510981E04B
:1003700090E002C0880F991F4A95E2F782239323E9
:100380002981222F30E02851310902C095958795A7
:100390002A95E2F701C080E00F90DF91CF91089598
:1003A000CF93DF9300D0CDB7DEB789836A8389818D
:1003B000883070F58A818823A9F08AE390E02AE3E7
:1003C00030E0F9012081622F2981422F50E021E0A5
:1003D00030E002C0220F331F4A95E2F7262BFC01C2
:1003E0002083C4C08AE390E02AE330E0F901208151
:1003F000622F2981422F50E021E030E002C0220F1D
:10040000331F4A95E2F720952623FC012083AEC0D6
:1004100089818830B8F189818031A0F58A8188236B
:10042000C1F087E390E027E330E0F9012081622FFB
:100430002981222F30E0A9014850510921E030E004
:1004400002C0220F331F4A95E2F7262BFC012083BE
:100450008DC087E390E027E330E0F9012081622F2F
:100460002981222F30E0A9014850510921E030E0D4
:1004700002C0220F331F4A95E2F720952623FC0184
:10048000208374C089818031B8F189818831A0F5D9
:100490008A818823C1F084E390E024E330E0F9010D
:1004A0002081622F2981222F30E0A901405151097A
:1004B00021E030E002C0220F331F4A95E2F7262BDD
:1004C000FC01208353C084E390E024E330E0F90191
:1004D0002081622F2981222F30E0A901405151094A
:1004E00021E030E002C0220F331F4A95E2F7209549
:1004F0002623FC0120833AC089818831B8F18981A3
:100500008032A0F58A818823C1F081E390E021E365
:1005100030E0F9012081622F2981222F30E0A901EA
:100520004851510921E030E002C0220F331F4A95A3
:10053000E2F7262BFC01208319C081E390E021E340
:1005400030E0F9012081622F2981222F30E0A901BA
:100550004851510921E030E002C0220F331F4A9573
:10056000E2F720952623FC01208300C000000F90B5
:100570000F90DF91CF910895CF93DF93CDB7DEB782
:10058000AC970FB6F894DEBF0FBECDBF0E94DA0560
:1005900064E070E080E090E00E94AF032BE0E0E6D2
:1005A000F0E0CE010196DC0101900D922A95E1F771
:1005B0008BE0EBE6F0E0DE011C9601900D928A954F
:1005C000E1F78BE0E6E7F0E0DE01579601900D924F
:1005D0008A95E1F78BE0E1E8F0E0DE019296019088
:1005E0000D928A95E1F7CE0101960E941003CE018B
:1005F0000C960E941003CE0147960E941003CE0174
:1006000082960E9410030E942C0480E090E0AC9639
:100610000FB6F894DEBF0FBECDBFDF91CF91089526
:10062000CF93DF9300D01F92CDB7DEB79B838A8331
:1006300081E0898380918D0090918E00A0918F0040
:10064000B09190000597A105B10508F080C0809198
:100650008D0090918E00A0918F00B09190002A8122
:100660003B81F90120813181AC016BE0649FC001C5
:10067000659F900D11248F569F4FFC01318320837D
:1006800020918D0030918E0040918F00509190000C
:100690008A819B81FC0182819381A481B581A9011A
:1006A0006BE0649F9001659F300D11242D563F4FE4
:1006B000F90180839183A283B38320918D003091CF
:1006C0008E0040918F00509190008A819B81FC01A7
:1006D00086819781A085B185A9016BE0649F900117
:1006E000659F300D112429563F4FF9018083918376
:1006F000A283B38380918D0090918E00A0918F0092
:10070000B09190002A813B81F90142859C015BE018
:10071000529FC001539F900D112485569F4FFC019D
:10072000408380918D0090918E00A0918F00B091B8
:1007300090000196A11DB11D80938D0090938E00B5
:10074000A0938F00B093900081E0898301C019824B
:1007500089810F900F900F90DF91CF910895CF93E3
:10076000DF93CDB7DEB728970FB6F894DEBF0FBE84
:10077000CDBF6D837E838F8398878D819E81AF816E
:10078000B8858093C8009093C900A093CA00B09325
:10079000CB0019821A821B821C8219821A821B8248
:1007A0001C8242C029813A814BE0429FC001439F95
:1007B000900D11248F569F4FFC01118210822981C8
:1007C0003A814BE0429FC001439F900D11248D560A
:1007D0009F4FFC01108211821282138229813A817B
:1007E0004BE0429FC001439F900D112489569F4FBB
:1007F000FC01108211821282138229813A814BE01E
:10080000429FC001439F900D112485569F4FFC01CC
:10081000108289819A81AB81BC810196A11DB11D95
:1008200089839A83AB83BC8329813A814B815C8124
:100830008D819E81AF81B885281739074A075B07EC
:1008400008F4B0CF000028960FB6F894DEBF0FBEB4
:10085000CDBFDF91CF910895CF93DF93CDB7DEB7B2
:100860000E94E6040E944E068BED94E00E94B106C1
:100870000E94B60580918C008130D1F710928C00D7
:100880000E944304F5CFCF93DF931F92CDB7DEB71D
:100890001982198278C08981282F30E04BE0429F6D
:1008A000C001439F900D112489569F4FFC01808108
:1008B0009181A281B3810197A109B1096BE0629F87
:1008C000A001639F500D11249A0129563F4FF90151
:1008D00080839183A283B3838981282F30E04BE00A
:1008E000429FC001439F900D112489569F4FFC01E8
:1008F00080819181A281B381892B8A2B8B2B09F076
:100900003FC08981282F30E04BE0429FC001439FC8
:10091000900D112485569F4FFC018081843680F50F
:100920008981282F30E04BE0429FC001439F900D0A
:1009300011248F569F4FFC0180819181FC01099504
:100940008981482F50E08981282F30E06BE0629F39
:10095000C001639F900D11248D569F4FFC01808133
:100960009181A281B3816BE0649F9001659F300DFE
:10097000112429563F4FF90180839183A283B383C9
:1009800089818F5F89838981282F30E040E050E0A2
:1009900080918D0090918E00A0918F00B091900079
:1009A000281739074A075B0708F475CF00000F9036
:1009B000DF91CF910895CF93DF93CDB7DEB781E07C
:1009C00080938C000000DF91CF910895CF93DF9347
:1009D000CDB7DEB763970FB6F894DEBF0FBECDBFBD
:1009E00019821A821B821C821D821E821F82188617
:1009F00019821A821B821C829DC081E090E0A0E0D7
:100A0000B0E08D839E83AF83B88777C02D813E8110
:100A10004BE0429FC001439F900D112485569F4F8C
:100A2000FC0140818D819E81AF81B8850197A1092C
:100A3000B1099C015BE0529FC001539F900D1124AE
:100A400085569F4FFC018081481708F04BC02D81CF
:100A50003E814BE0429FC001439F900D11248F5671
:100A60009F4F2BE0FC01DE01199601900D922A9513
:100A7000E1F78D819E81AF81B8850197A109B10908
:100A80004D815E816BE0649F9001659F300D112464
:100A90002F563F4FAC016BE0649FC001659F900DE6
:100AA00011248F569F4F4BE0FC01D90101900D920C
:100AB0004A95E1F78D819E81AF81B8850197A109A3
:100AC000B1099C014BE0429FC001439F900D11244E
:100AD0008F569F4F2BE0FE013996DC0101900D925D
:100AE0002A95E1F78D819E81AF81B8850196A11D80
:100AF000B11D8D839E83AF83B88780918D009091C7
:100B00008E00A0918F00B09190002D813E814F8189
:100B10005885281739074A075B0708F477CF89817A
:100B20009A81AB81BC810196A11DB11D89839A83F5
:100B3000AB83BC8380918D0090918E00A0918F003B
:100B4000B091900029813A814B815C812817390747
:100B50004A075B0708F451CF000063960FB6F8947C
:100B6000DEBF0FBECDBFDF91CF910895CF93DF934E
:100B7000CDB7DEB78AE00E9435018823B9F08091B5
:100B80008D0090918E00A0918F00B0919000019700
:100B9000A109B1099C014BE0429FC001439F900D08
:100BA000112485569F4F24E6FC0120830000DF912D
:100BB000CF910895CF93DF93CDB7DEB761E08CE09E
:100BC0000E94D00161E08DE00E94D00161E08EE0E2
:100BD0000E94D00161E08FE00E94D00160E08AE0D5
:100BE0000E94D0010000DF91CF910895CF93DF9351
:100BF000CDB7DEB78CE00E943501882329F060E094
:100C00008CE00E94490004C061E08CE00E94490031
:100C10000000DF91CF910895CF93DF93CDB7DEB77A
:100C20008DE00E943501882329F060E08DE00E946C
:100C3000490004C061E08DE00E9449000000DF919E
:100C4000CF910895CF93DF93CDB7DEB78EE00E94AA
:100C50003501882329F060E08EE00E94490004C03D
:100C600061E08EE00E9449000000DF91CF9108957D
:100C7000CF93DF93CDB7DEB78FE00E943501882395
:100C800029F060E08FE00E94490004C061E08FE03D
:100C90000E9449000000DF91CF910895CF93DF9328
:100CA000CDB7DEB78FE490E02FE430E0F90120818A
:100CB0002E7FFC0120838FE490E02FE430E0F901E7
:100CC00020812D7FFC0120838EE490E02EE430E033
:100CD000F90120812860FC0120838EE490E02EE45D
:100CE00030E0F90120812F7EFC0120838BE490E02D
:100CF0002EE3FC0120838AE490E020E8FC012083BD
:100D00008EE490E02EE430E0F90120812160FC01C6
:100D100020838EE490E02EE430E0F90120812D7FE5
:100D2000FC0120838EE490E02EE430E0F901208184
:100D30002B7FFC0120838FE590E02FE530E0F90167
:100D400020812068FC01208389E590E029E530E0DE
:100D5000F90120812061FC0120830000DF91CF9107
:100D60000895CF93DF9300D0CDB7DEB79A83898300
:100D700089819A819093CD008093CC0000000F90E0
:100D80000F90DF91CF9108951F920F9200905F0016
:100D90000F9211242F933F934F935F936F937F9301
:100DA0008F939F93AF93BF93EF93FF93CF93DF9373
:100DB000CDB7DEB78091CC009091CD00FC010995B4
:100DC0000000DF91CF91FF91EF91BF91AF919F9183
:100DD0008F917F916F915F914F913F912F910F90E4
:0E0DE00000925F000F901F901895F894FFCFBF
:100DEE00F605C4090000C4090000010C06DC05006C
:100DFE0000DC050000002206D0070000D00700002E
:0C0E0E00023806E8030000E803000003BF
:00000001FF
