S00A00004F532E7372656378
S11300000C942A000C9447000C9447000C9447006D
S11300100C9447000C9447000C9447000C941F0365
S11300200C9447000C9447000C9447000C94470030
S11300300C9447000C9447000C9447000C94470020
S11300400C9447000C9447000C9447000C94470010
S11300500C94470011241FBECFE5D8E0DEBFCDBF0E
S113006010E0A0E6B0E0E4EAF6E002C005900D92EC
S1130070A836B107D9F720E0A8E6B0E001C01D9288
S1130080AB36B207E1F70E9421020C9450030C94A2
S11300900000CF93DF9300D0CDB7DEB789836A83A6
S11300A08981883070F58A818823A9F08BE390E0F8
S11300B02BE330E0F9012081622F2981422F50E0A7
S11300C021E030E002C0220F331F4A95E2F7262BCD
S11300D0FC012083C4C08BE390E02BE330E0F90102
S11300E02081622F2981422F50E021E030E002C0BC
S11300F0220F331F4A95E2F720952623FC01208323
S1130100AEC089818830B8F189818031A0F58A81B7
S11301108823C1F088E390E028E330E0F9012081EE
S1130120622F2981222F30E0A9014850510921E092
S113013030E002C0220F331F4A95E2F7262BFC0160
S113014020838DC088E390E028E330E0F90120812A
S1130150622F2981222F30E0A9014850510921E062
S113016030E002C0220F331F4A95E2F72095262380
S1130170FC01208374C089818031B8F18981883180
S1130180A0F58A818823C1F085E390E025E330E07F
S1130190F9012081622F2981222F30E0A9014051E9
S11301A0510921E030E002C0220F331F4A95E2F7E3
S11301B0262BFC01208353C085E390E025E330E047
S11301C0F9012081622F2981222F30E0A9014051B9
S11301D0510921E030E002C0220F331F4A95E2F7B3
S11301E020952623FC0120833AC089818831B8F107
S11301F089818032A0F58A818823C1F082E390E06E
S113020022E330E0F9012081622F2981222F30E09E
S1130210A9014851510921E030E002C0220F331FE7
S11302204A95E2F7262BFC01208319C082E390E073
S113023022E330E0F9012081622F2981222F30E06E
S1130240A9014851510921E030E002C0220F331FB7
S11302504A95E2F720952623FC01208300C0000084
S11302600F900F90DF91CF910895CF93DF9300D03B
S1130270CDB7DEB789836A838981883070F58A8136
S11302808823A9F08AE390E02AE330E0F901208191
S1130290622F2981422F50E021E030E002C0220F7A
S11302A0331F4A95E2F7262BFC012083C4C08AE35E
S11302B090E02AE330E0F9012081622F2981422F66
S11302C050E021E030E002C0220F331F4A95E2F7EC
S11302D020952623FC012083AEC089818830B8F1A3
S11302E089818031A0F58A818823C1F087E390E079
S11302F027E330E0F9012081622F2981222F30E0A9
S1130300A9014850510921E030E002C0220F331FF7
S11303104A95E2F7262BFC0120838DC087E390E009
S113032027E330E0F9012081622F2981222F30E078
S1130330A9014850510921E030E002C0220F331FC7
S11303404A95E2F720952623FC01208374C0898115
S11303508031B8F189818831A0F58A818823C1F080
S113036084E390E024E330E0F9012081622F2981C5
S1130370222F30E0A9014051510921E030E002C0B0
S1130380220F331F4A95E2F7262BFC01208353C02A
S113039084E390E024E330E0F9012081622F298195
S11303A0222F30E0A9014051510921E030E002C080
S11303B0220F331F4A95E2F720952623FC01208360
S11303C03AC089818831B8F189818032A0F58A8167
S11303D08823C1F081E390E021E330E0F90120813A
S11303E0622F2981222F30E0A9014851510921E0CF
S11303F030E002C0220F331F4A95E2F7262BFC019E
S1130400208319C081E390E021E330E0F9012081E9
S1130410622F2981222F30E0A9014851510921E09E
S113042030E002C0220F331F4A95E2F720952623BD
S1130430FC01208300C000000F900F90DF91CF914A
S11304400895CF93DF93CDB7DEB761E08CE00E94CF
S1130450350161E08DE00E94350161E08EE00E948B
S1130460350161E08FE00E9435010E943C0280E08A
S113047090E0DF91CF910895CF93DF93CDB7DEB7AE
S11304800E94A9028EE692E00E940C03809168000B
S11304908130E1F7109268000E944F02F7CFCF93AA
S11304A0DF931F92CDB7DEB7198219820FC08981FD
S11304B0882F90E0880F991F805A9F4FFC018081FC
S11304C09181FC01099589818F5F898389818430B9
S11304D070F300000F90DF91CF910895CF93DF93D5
S11304E0CDB7DEB781E0809368000000DF91CF9143
S11304F00895CF93DF93CDB7DEB761E08CE00E941F
S113050049000000DF91CF910895CF93DF93CDB7D9
S1130510DEB761E08DE00E9449000000DF91CF91D9
S11305200895CF93DF93CDB7DEB761E08EE00E94EC
S113053049000000DF91CF910895CF93DF93CDB7A9
S1130540DEB761E08FE00E9449000000DF91CF91A7
S11305500895CF93DF93CDB7DEB78FE490E02FE417
S113056030E0F90120812E7FFC0120838FE490E0AC
S11305702FE430E0F90120812D7FFC0120838EE4FB
S113058090E02EE430E0F90120812860FC01208312
S11305908EE490E02EE430E0F90120812F7EFC010E
S11305A020838BE490E02EE3FC0120838AE490E036
S11305B020E8FC0120838EE490E02EE430E0F90191
S11305C020812160FC0120838EE490E02EE430E061
S11305D0F90120812D7FFC0120838EE490E02EE43C
S11305E030E0F90120812B7FFC0120838FE590E02E
S11305F02FE530E0F90120812068FC01208389E5A2
S113060090E029E530E0F90120812061FC0120839C
S11306100000DF91CF910895CF93DF9300D0CDB741
S1130620DEB79A83898389819A8190936A00809343
S1130630690000000F900F90DF91CF9108951F92F1
S11306400F9200905F000F9211242F933F934F93CA
S11306505F936F937F938F939F93AF93BF93EF9326
S1130660FF93CF93DF93CDB7DEB78091690090916C
S11306706A00FC0109950000DF91CF91FF91EF9191
S1130680BF91AF919F918F917F916F915F914F91A6
S11306903F912F910F9000925F000F901F9018953B
S10706A0F894FFCFF8
S10B06A47902850291029D0216
S9030000FC
