S0130000554152545F4472697665722E737265630A
S11300000C942A000C9434000C9434000C943400A6
S11300100C9434000C9434000C9434000C9434008C
S11300200C9434000C9434000C9434000C9434007C
S11300300C9434000C9434000C9434000C9434006C
S11300400C9434000C9434000C9434000C9434005C
S11300500C94340011241FBECFE5D8E0DEBFCDBF21
S11300600E9436000C9453000C9400000E943D0042
S11300700E944E000E944400FBCF10BC87E689B961
S11300808AB188618AB908959BB195FB222720F92A
S113009030E021153105E9F38CB908958BB188233B
S10D00A0F4F78CB10895F894FFCF33
S9030000FC
